:020000040800F2
:100000000004002017030008CD050008CF050008F4
:10001000D3050008D7050008DB0500080000000034
:10002000000000000000000000000000DF050008E4
:10003000E105000800000000E3050008C514000801
:1000400037030008370300083703000837030008A8
:100050003703000837030008370300083703000898
:100060003703000837030008370300083703000888
:100070003703000837030008370300083703000878
:100080003703000837030008370300083703000868
:100090003703000837030008370300083703000858
:1000A0003703000837030008370300083703000848
:1000B0003703000837030008370300083703000838
:1000C0003703000837030008370300083703000828
:1000D000370300088D0500083703000837030008C0
:1000E0003703000837030008370300083703000808
:1000F00037030008370300083703000837030008F8
:1001000037030008370300083703000837030008E7
:1001100037030008370300083703000837030008D7
:1001200037030008370300083703000837030008C7
:1001300000F002F800F042F80AA090E8000C8244B7
:100140008344AAF10107DA4501D100F037F8AFF294
:10015000090EBAE80F0013F0010F18BFFB1A43F0A5
:10016000010318476418000084180000103A24BFE7
:1001700078C878C1FAD8520724BF30C830C144BF0C
:1001800004680C607047000000230024002500264E
:10019000103A28BF78C1FBD8520728BF30C148BFEA
:1001A0000B607047782901F03F82632901F0728368
:1001B000002070471FB51FBD10B510BD01F0A4FB96
:1001C0001146FFF7F7FF00F008F901F0C2FB03B496
:1001D000FFF7F2FF03BC00F06DF900000CB5002042
:1001E000019000904748006840F48030454908601D
:1001F00000BF4448006800F4003000900198401CA3
:100200000190009818B90198B0F5A06FF1D13D4860
:10021000006810F4003F02D00120009001E00020AF
:1002200000900098012843D13748006840F0100042
:10023000354908600846006820F003000860084659
:10024000006840F0020008602E4840682D49486070
:100250000846406848600846406840F4806048604E
:100260000846406820F47C1048600846406840F426
:10027000E81048600846006840F08070086000BFE1
:100280002048006810F0007FFAD01E48406820F037
:1002900003001C4948600846406840F0020048607E
:1002A00000BF1848406800F00C000828F9D101E0B0
:1002B00000BFFEE70CBD10B5FFF790FF10BD10B5F5
:1002C0001048006840F001000E4908600846406888
:1002D0000E4908400B494860084600680C49084030
:1002E000084908600846006820F480200860084635
:1002F000406820F4FE0048604FF41F008860FFF75C
:10030000DAFF10BD00100240002002400000FFF89C
:10031000FFFFF6FE70470B4880470B4981F30888C2
:100320000A480047FEE7FEE7FEE7FEE7FEE7FEE7D6
:10033000FEE7FEE7FEE7FEE705480649064A074BEB
:1003400070470000150300088008002031010008F4
:10035000800000208008002080040020800400200D
:10036000002109E0002201E0531C9AB242F6140376
:100370009A42F9DB4B1C99B28142F3DB704708B516
:100380000121102000F0A2FC4FF40050ADF8000055
:1003900010208DF8030003208DF8020069463448D0
:1003A00000F0EEF908BD08B500214FF0006000F044
:1003B00051F94FF4A06000F015F925208DF80000E8
:1003C00002208DF8010000208DF8020001208DF838
:1003D0000300684600F00BF908BD0024FFF76FFF2B
:1003E000FFF7E1FFFFF7CBFF00F092F801F073F8A1
:1003F00000F0CAFE4FF4E13000F0AAF81DA001F0B1
:10040000B5F827E044F400442146182001F000F834
:10041000182001F026F8044621461EA001F0A6F897
:1004200048F2010004432146182000F0F1FF182093
:1004300001F017F80446214616A001F097F81B4872
:1004400000686FEA00001A49C1F8B4014FF47A70ED
:10045000FFF786FFD6E7002107E0002201E0531CEA
:100460009AB2092AFBDB4B1C99B28142F5DB70473B
:1004700000100140426567696E6720746F207265E5
:10048000616420746865204F5A3337323130200A56
:100490000D00000041646472203D20307831382C1A
:1004A0003078253034780A0D00000000B401224273
:1004B00000002242014600BF704770B504460D4659
:1004C00000BF80213D4800F0E1FD0028F9D0A1B235
:1004D0003A4800F084FD204670BD10B5044600BFC8
:1004E0008021364800F0D2FD0028F9D0214633485B
:1004F00000F075FD10BD10B500BF20212F4800F0A1
:10050000C5FD0028F9D02D4800F06DFDC0B210BD2A
:1005100008B5012144F2040000F0D8FB4FF400704C
:10052000ADF8000018208DF8030003208DF80200BC
:100530006946234800F024F94FF48060ADF80000CC
:1005400004208DF8030069461D4800F019F908BD24
:100550001FB5044600940020ADF80400ADF8060075
:10056000ADF80800ADF80C000C20ADF80A006946A3
:10057000124800F056FC012240F225510F4800F0CD
:10058000CDFC01210D4800F0BDFC1FBD10B540F2AF
:1005900025510A4800F090FD40F22551074800F02F
:1005A000B5FD064800F01FFDC4B2214605A000F0CD
:1005B000DDFF05A000F0DAFF10BD000000380140AB
:1005C00000080140256300000A0D0000704700BFCD
:1005D000FEE700BFFEE700BFFEE700BFFEE7704793
:1005E0007047704731490143314A1160704770B517
:1005F000002100230F22C4780CB32D4C246804F48E
:10060000E064C4F5E064210AC1F10403CA404478FF
:1006100004FA03F18478144021430901254C06783B
:10062000A155047804F01F050124AC4005786D1134
:100630004FF0E02606EB8505C5F8004109E0047897
:1006400004F01F050124AC401B4D0678761145F8D7
:10065000264070BD194A0A400243154B1B1F1A6001
:10066000704739B1124A121D12680243104B1B1D0C
:100670001A6006E00E4A121D126882430C4B1B1DC5
:100680001A607047042808D14FF0E021096941F051
:1006900004014FF0E022116107E04FF0E021096909
:1006A00021F004014FF0E022116170470000FA05CB
:1006B0000CED00E000E400E080E100E080FFFF1FBF
:1006C00010B50446C248844208D10121042000F03C
:1006D00017FB0021042000F013FB46E0BD488442D4
:1006E00008D10121082000F00BFB0021082000F0B8
:1006F00007FB3AE0B848844208D10121102000F0FD
:10070000FFFA0021102000F0FBFA2EE0B3488442EB
:1007100008D10121202000F0F3FA0021202000F070
:10072000EFFA22E0AE48844208D10121402000F0D7
:10073000E7FA0021402000F0E3FA16E0A9488442DD
:1007400008D10121802000F0DBFA0021802000F098
:10075000D7FA0AE0A448844207D10121801500F0AD
:10076000CFFA0021A01500F0CBFA10BD10B5012181
:10077000084600F0C5FA0021012000F0C1FA10BDC2
:100780002DE9F04102460025002600200023002428
:10079000002791F803C00CF00F0591F803C01CF07E
:1007A000100F03D091F802C04CEA050591F800C083
:1007B000BCF1000F31D0146800202BE04FF0010C89
:1007C0000CFA00F3B1F800C00CEA03069E4220D1F7
:1007D00083004FF00F0C0CFA03F7BC4305FA03FC3F
:1007E0004CEA040491F803C0BCF1280F06D14FF085
:1007F000010C0CFA00FCC2F814C00AE091F803C026
:10080000BCF1480F05D14FF0010C0CFA00FCC2F806
:1008100010C0401C0828D1D31460B1F800C0BCF14E
:10082000FF0F34DD546800202EE000F1080C4FF07B
:10083000010808FA0CF3B1F800C00CEA03069E4266
:1008400021D183004FF00F0C0CFA03F7BC4305FADB
:1008500003FC4CEA040491F803C0BCF1280F05D155
:1008600000F1080C08FA0CF8C2F8148091F803C0E3
:10087000BCF1480F07D100F1080C4FF0010808FA4D
:100880000CF8C2F81080401C0828CED35460BDE894
:10089000F0814FF6FF710180022181700421C17047
:1008A00070470246002093680B4201D0012000E00F
:1008B000002070470146886880B2704702460020D9
:1008C000D3680B4201D0012000E0002070470146B0
:1008D000C86880B2704701617047416170470AB1D2
:1008E000016100E041617047C16070474FF48032A0
:1008F0000A4382618161826182698269704702462E
:1009000000203A4B18684FF68073184040EA0210F6
:100910000843364B186070473549C8617047F0B5D9
:100920000A460023002400210025304E7168C0F3E0
:10093000034583B200F44016B6F5401F08D121F0FC
:1009400070612A4E766826F07066284F7E6012E04D
:1009500000F48016B6F5801F06D1032606FA05F4CA
:10096000A14341F0706106E0460D360103FA06F638
:10097000B14341F0706122B1460D360103FA06F62B
:1009800031431A4E7160F0BD30B500228B071C0F49
:100990000F2303FA04F2154B08338C1053F824305C
:1009A0009343124C08348D1044F8253023468C10A4
:1009B00053F824308C07240F00FA04F423430B4C23
:1009C00008348D1044F8253030BD0A49086070475E
:1009D00000080140000C01400010014000140140DB
:1009E00000180140001C01400020014000000140AF
:1009F00000002042DC002042DD48006840F0010099
:100A0000DB49086008464068DA490840D849486030
:100A100008460068D8490840D5490860084600687B
:100A200020F4802008600846406820F4FE004860FA
:100A30004FF41F0088607047CD49096821F4803168
:100A4000CB4A11601146096821F480211160B0F58C
:100A5000803F03D0B0F5802F0ED106E0C44909686D
:100A600041F48031C24A116007E0C149096841F48C
:100A7000A021BF4A116000E000BF00BF704710B561
:100A800001460022002300204A11012A02D1B84C5D
:100A9000236806E0022A02D1B54C236A01E0B44C77
:100AA000636A01F01F02012494401C4201D001201E
:100AB00000E0002010BD38B5002000900024002583
:100AC00000BF3120FFF7DBFF05460098401C009077
:100AD0000098B0F5A06F01D0002DF2D03120FFF7C3
:100AE000CEFF08B1012400E00024204638BD0146B5
:100AF00000209F4A106820F0F80040EAC100106012
:100B000070479E490860704702460020984B58681D
:100B100020F47C1042EA01031843954B586070475B
:100B200096490866704701460020914A506820F0B7
:100B300003000843506070478D48406800F00C0087
:100B40007047014600208A4A506820F0F0000843B0
:100B50005060704701460020854A506820F4E060EC
:100B600008435060704701460020814A506820F4D5
:100B7000605040EAC1005060704729B17C4A527A07
:100B800002437B4B5A7204E0794A527A8243784B93
:100B90005A7270477A490860704701460020744ACB
:100BA000506820F440400843506070470021754A67
:100BB00011706F4A82F82010012802D0042808D151
:100BC00003E001216F4A117004E005216D4A1170A4
:100BD00000E000BF00BF70476B4908607047644980
:100BE000096A0143624A11627047674944390860E3
:100BF000704730B500210022002400235C4D6D6851
:100C000005F00C0121B1042905D0082923D105E004
:100C10005E4D056022E05D4D05601FE0544D6D683E
:100C200005F47012524D6D6805F48034022505EB11
:100C300092421CB9564D554305600BE04C4D6D6812
:100C400015F4003F03D0524D5543056002E04F4D6F
:100C50005543056002E04D4D056000BF00BF444DA7
:100C60006D6805F0F00109094A4D6B5C0568DD40CF
:100C700045603F4D6D6805F4E061090A454D6B5CC8
:100C80004568DD4085603A4D6D6805F46051C90ADC
:100C9000404D6B5C4568DD40C560354D6D6805F4C1
:100CA0004041890B3C4D6B5CC568B5FBF3F50561B4
:100CB00030BD29B12E4A526902432D4B5A6104E0DE
:100CC0002B4A526982432A4B5A61704729B1284AFC
:100CD00092690243264B9A6104E0254A9269824355
:100CE000234B9A61704729B1214AD2690243204BB4
:100CF000DA6104E01E4AD26982431D4BDA61704713
:100D000029B11B4AD2680243194BDA6004E0184A41
:100D1000D2688243164BDA60704729B1144A1269CF
:100D20000243134B1A6104E0114A12698243104BCB
:100D30001A61704714494039086070470F49C86408
:100D400070470B49C87170470948406A40F080708D
:100D500007494862704701460020054A92680A42E6
:100D600001D0012000E000207047014988727047DF
:100D7000001002400000FFF8FFFFF6FE00004242B4
:100D8000D8004242201002408004424200127A0001
:100D900000093D00040000201400002010B50446A6
:100DA000E248844209D101218803FFF7A9FF00210D
:100DB0004FF48040FFF7A4FF32E0DD48844209D1C0
:100DC00001214804FFF7A9FF00214FF40030FFF78D
:100DD000A4FF25E0D748844209D101218804FFF708
:100DE0009CFF00214FF48020FFF797FF18E0D248C6
:100DF000844209D10121C804FFF78FFF00214FF47D
:100E00000020FFF78AFF0BE0CC48844208D1012183
:100E10000805FFF782FF00214FF48010FFF77DFFE8
:100E200010BD2DE9F04786B005460E460024A246C7
:100E300000BF00BF0027B08900B100BF2F462C8A39
:100E40004CF6FF700440F08804432C82AC894EF6C7
:100E5000F3100440B0883189084371890843044382
:100E6000AC81AC8A4FF6FF400440B0890443AC82A9
:100E700001A8FFF7BEFEAD48874202D1DDF810A001
:100E800001E0DDF80CA00AEBCA0000EB0A103168A3
:100E90008900B0FBF1F86420B8FBF0F004012009F0
:100EA000642101FB1089322000EB0910B0FBF1F046
:100EB00000F00F0004432C8106B0BDE8F0874FF42A
:100EC0001651016000218180C18001810C21418186
:100ED00000218181704710B502460020108A4FF230
:100EE000FF0318400B884C8823438C882343CC880D
:100EF00023431843108210BD00210180418081806E
:100F0000C180704721B1828942F40052828104E09D
:100F100082894DF6FF731A4082817047F0B503460F
:100F20000024002600250020A1F510676A3F00D1AB
:100F300000BF1846C1F3421401F01F06012707FA4B
:100F400006F5012C01D10C3004E0022C01D1103047
:100F500000E014301AB107682F43076002E0076809
:100F6000AF430760F0BD1AB1838A0B43838202E06E
:100F7000838A8B4383827047028A4FF6F0731A404C
:100F80000282028A0A430282704782894FF2FF730B
:100F90001A40828182890A438281704721B1828905
:100FA00042F00202828104E082894FF6FD731A400A
:100FB00082817047028A4FF6DF731A400282028AEA
:100FC0000A430282704721B1028A42F480420282BF
:100FD00004E0028A4BF6FF731A4002827047C1F3A5
:100FE00008028280704701468888C0F30800704775
:100FF000818941F0010181817047028BD2B2028365
:10100000028B42EA012202837047028B02F47F4284
:101010000283028B0A430283704721B1828A42F025
:101020002002828204E0828A4FF6DF731A408282B5
:10103000704721B1828A42F01002828204E0828AE3
:101040004FF6EF731A408282704721B1828A42F0D4
:101050000802828204E0828A4FF6F7731A40828285
:101060007047828A4FF6FB731A408282828A0A4353
:101070008282704721B1828A42F00202828204E0B9
:10108000828A4FF6FD731A40828270470246002022
:10109000B1F5007F00D100BF13880B4201D00120C1
:1010A00000E00020704701F40072B2F5007F00D12B
:1010B00000BFCA430280704770B502460024002377
:1010C00000250020A1F510666A3E00D100BFC1F3E3
:1010D000421501F01F03012606FA03F3012D02D188
:1010E0009689334006E0022D02D1168A334001E092
:1010F000968A33400C12012606FA04F4168834400E
:1011000013B10CB1012000E0002070BD10B5002229
:101110000023A1F510646A3C00D100BF0A1201242B
:101120009440A3B2DC43048010BD000000380140AD
:101130000044004000480040004C00400050004087
:1011400008B5002000908020ADF8000010208DF838
:10115000030003208DF802006946AC48FFF710FB3E
:1011600008BD10B5FFF7ECFF8021A848FFF7B5FBDD
:101170004021A648FFF7AFFB052000F0D7F98021FA
:10118000A248FFF7A8FB10BD08B500200090012180
:101190000820FFF79BFDC020ADF8000014208DF85B
:1011A000030003208DF8020069469848FFF7E8FA2B
:1011B000FFF7D7FF08BD08B5002000908020ADF8EC
:1011C000000048208DF8030069469048FFF7D8FAE0
:1011D00008BD10B5FFF7B4FF80218C48FFF77BFBFB
:1011E00040218A48FFF777FB052000F09FF9802116
:1011F0008648FFF772FB052000F098F940218348EC
:10120000FFF76BFB10BD70B500240025FFF7D3FF7F
:1012100080217E48FFF75FFB052000F087F9402121
:101220007A48FFF758FB052000F080F905E0601CC4
:10123000C4B2FA2C01DD012505E080217348FFF7D7
:1012400030FB0028F3D100BF40217048FFF745FB79
:10125000284670BD10B580216C48FFF73EFBFFF7B4
:101260006FFF052000F062F940216848FFF733FB6B
:10127000052000F05BF940216448FFF72EFB0520B4
:1012800000F054F980216148FFF725FB10BD10B52F
:1012900080215E48FFF71FFBFFF752FF052000F09B
:1012A00045F940215948FFF716FB052000F03EF9AB
:1012B00040215648FFF711FB052000F037F910BD1B
:1012C00070B50446FFF73CFF40215048FFF705FB8F
:1012D000002520E014F0800F04D080214B48FFF758
:1012E000FAFA03E080214948FFF7F7FA6006040E96
:1012F000012000F01BF940214448FFF7ECFA0520DB
:1013000000F014F940214148FFF7E7FA012000F00E
:101310000DF9681CC5B2082DDCDB80213B48FFF7C6
:10132000DAFA70BD70B505460024FFF744FF0026C9
:1013300018E06006040E40213448FFF7CCFA05207F
:1013400000F0F4F880213148FFF7ABFA08B1601CD7
:10135000C4B240212D48FFF7C0FA052000F0E6F89E
:10136000701CC6B2082EE4DB15B1FFF773FF01E075
:10137000FFF78DFF204670BD70B503460C46002078
:10138000002115E05D5C80220EE010F0800F04D09B
:101390004606300E80F0070001E04606300E15428A
:1013A00001D080F007005210002AEED14E1CB1B2DD
:1013B000A142E7DB70BD7CB504460E4615468DF8AC
:1013C00000408DF8016044F001008DF80200281201
:1013D0008DF80300E8B28DF8040005216846FFF798
:1013E000CBFF7CBD78B505460E4614468DF80050FF
:1013F0008DF8016020128DF80200E0B28DF8030034
:1014000004216846FFF7B8FF78BD0000000C0140DA
:1014100070B505460C460026FFF7DBFE5220FFF7AD
:101420004FFFFFF7F0FE2846FFF74AFFFFF7EBFEFE
:101430002012FFF745FFFFF7E6FEE0B2FFF740FF9F
:10144000FFF7E1FE224629465220FFF7CBFF064672
:101450003046FFF735FFFFF784FE052000F06EF8F9
:1014600070BD2DE9F041054600260027B046002456
:10147000FFF7AFFE5220FFF723FFFFF7C4FE284619
:10148000FFF71EFFFFF7BFFEFFF7A3FE5320FFF796
:1014900017FFFFF7B8FE0120FFF744FF06460120C3
:1014A000FFF740FF07460020FFF73CFF8046FFF7AD
:1014B00058FE052000F042F834023C432046BDE8C7
:1014C000F08100002348006820B122480068401ED7
:1014D00020490860704770B5FEF7F1FE1E480068AD
:1014E0001E4AB0FBF2F1B1F1807F00D31DE021F084
:1014F0007F40401E4FF0E022506150170F2200281D
:1015000007DA13071D0E164B00F00F04241F1D559C
:1015100003E013071C0E134B1C5400BF00204FF0B8
:10152000E02290610720106100BF70BD094908608A
:1015300000BF084909680029FBD1704700B5024681
:1015400003E04FF47A70FFF7F1FF1000A2F10102FF
:10155000F7D100BD180000207819000840420F00A4
:1015600018ED00E000E400E0704700000FB404490B
:1015700010B503AA029800F099F910BC5DF814FBAD
:101580000000002070B5044685690068C10601D5D9
:10159000302600E02026C00708D070BDD4E9012124
:1015A00030469047206A00F1010020626D1EF5D59B
:1015B00070BD70B5044685690078C00708D170BD5C
:1015C000D4E9012120209047206A00F10100206227
:1015D0006D1EF5D570BD70B50C460546012A05D0C7
:1015E0002878800600D5EA69002302E0012305E09F
:1015F0005B1C934202D2E05C0028F9D1A869E6188E
:10160000C01AA861286A184428622846FFF7BAFF62
:1016100004E0D5E9012114F8010B9047B442F8D356
:101620002846FFF7C6FF70BD70B504460D4621463B
:101630001068AFF300802188090502D5104A7A446A
:1016400002E00F4A7A440E32002104F1240307E03D
:1016500000F00F064FEA1010965D5E5401F1010193
:101660000028F5D103462078000704D5702D02D05C
:1016700009B1113202232046BDE8704000F0A4B841
:101680004A0300002DE9F05F894604464FF0000A46
:10169000DFF828B1FB44C0F820A02046E168884765
:1016A00000287CD0252806D0D4E901219047206A63
:1016B000401C2062F1E700255F462046E16888472C
:1016C0002028064608DB312E06D207EB060010F86C
:1016D000200C08B10543F0E7A80701D525F0040563
:1016E000C4F81CA00027C4F818A02A2E09D0304640
:1016F00000F03AF938B304EB8708303EC8F81860B8
:1017000019E059F8041B204604EB87029161E16857
:101710008847012F064618D1E069002820DA25F015
:1017200020051DE0D8F8180000EB800006EB400013
:101730003038C8F818002046E1688847064600F0AF
:1017400013F90028EED1012F0AD02E2E08D1204601
:10175000E16888477F1C0646022F45F02005C4DB60
:10176000A069002803DA404245F00105A061E807BE
:1017700001D025F0100596B1A6F14100192802D834
:10178000203645F400654A463146204625604D46E0
:10179000FEF708FD60B1012807D0ED1D00E009E06B
:1017A00025F0070000F1080977E705F1040974E75F
:1017B000304679E7206ABDE8F09F00001C03000076
:1017C00070477047704770472DE9F0470D469946BE
:1017D0009246044600F124080168880604D5E069B1
:1017E00021F01001216000E00120A84202DDA0EB01
:1017F000050700E00027A16907EB050202EB0900DD
:10180000A1EB0000A0612078C00602D42046FFF7BB
:10181000B9FE002608E0D4E901211AF80600904735
:10182000206A401C761C20624E45F4DB2078C006FE
:101830000AD52046FFF7A6FE06E0D4E901213020B4
:101840009047206A401C2062381EA7F10107F4DC93
:1018500007E0D4E9012118F805009047206A401CF0
:101860002062281EA5F10105F3DC2046FFF7A1FE4A
:101870002078000602D50220BDE8F0870120FBE7B2
:1018800010B5436913B1AFF3008001E0FFF7A3FE89
:10189000012010BD127800F124010A7000224A7064
:1018A0000122EDE711684FF0FF32E9E7074B70B511
:1018B0000D467B4400F011F80446284600F020F85D
:1018C00010B14FF0FF3070BD204670BD05ECFFFF3A
:1018D00001694A1C02610878704700B58FB0CDE9F4
:1018E00001310021059105497944CDE903101146E4
:1018F0006846FFF7C7FE0FB000BD0000E5FFFFFF21
:10190000007B00F080007047754600F029F8AE4675
:1019100005006946534620F00700854618B020B5FB
:10192000FEF70AFDBDE820404FF000064FF000072B
:101930004FF000084FF0000B21F00701AC46ACE877
:10194000C009ACE8C009ACE8C009ACE8C0098D46E4
:1019500070470446AFF300802046FEF738FC0000D5
:10196000004870471C00002030380A2801D20120AE
:10197000704700207047000000A24A0400A24A04F9
:1019800000A24A040051250200A24A043031323339
:1019900034353637383941424344454640305800A3
:1019A00030313233343536373839616263646566D5
:1019B0004030780004000008000000000000000231
:1019C0000001000010000000E819000800000020DD
:1019D0001C0000006C010008041A00081C00002014
:1019E00064080000880100080000000000000000FA
:1019F00001020304010203040607080902040608A1
:041A000000000000E2
:0400000508000131BD
:00000001FF
